:100000000C9434000C9451000C9451000C94530047
:100010000C9451000C9451000C9451000C9451001C
:100020000C9451000C9451000C9451000C9451000C
:100030000C9451000C9451000C9451000C945100FC
:100040000C9409020C9451000C9451000C94510032
:100050000C9451000C9451000C9451000C945100DC
:100060000C9451000C94510011241FBECFEFD8E026
:10007000DEBFCDBF11E0A0E0B1E0E6E8F6E002C0EF
:1000800005900D92AC30B107D9F721E0ACE0B1E0BA
:1000900001C01D92A332B207E1F70E940C030C9439
:1000A00041030C9400001F920F920FB60F9211247F
:1000B0008F9383B185FB882780F9809315018F91F9
:1000C0000F900FBE0F901F901895EDE6F0E088306E
:1000D00060F08E3090F1843130F0863170F1F0E0D4
:1000E000E0E0863111F4ECE6F0E09081883040F5F4
:1000F00041E050E060E070E0082E04C0440F551F5E
:10010000661F771F0A94D2F7492B40832BB394E0E4
:10011000883050F091E08E3038F092E0843120F059
:1001200091E0863108F090E0822F892B8BBB809183
:100130006800982B909368000895EBE6F0E0D5CF27
:10014000482F4850550B8E3028F0863180F4482FC8
:100150004E50550B9A0141E050E060E070E004C061
:10016000440F551F661F771F2A95D2F7CDCF40E465
:10017000863151F240E0C8CF0F931F93CF93DF93A6
:10018000EC01162F662341F02B98239A64E670E069
:1001900080E090E00E94AA020C2F000F08B9809125
:1001A0001C018C171D0671F0209771F06C2F90E0E8
:1001B00080E00E943303C0931C0110921101009350
:1001C000100105C0CD2BC9F781E0809311011123E7
:1001D00091F068EC70E080E090E00E94AA02239821
:1001E0002B9864EF71E080E090E0DF91CF911F9158
:1001F0000F910C94AA02DF91CF911F910F91089556
:100200000F931F932091120180910C0190910D0189
:10021000A0910E01B0910F0130911001332371F1C3
:1002200021113FC0892B8A2B8B2BB9F428980E946F
:100230004B0266507F4F8F4F9F4F60930C0170931E
:100240000D0180930E0190930F0180911001815058
:10025000809310011F910F9108950E944B0200910D
:100260000C0110910D0120910E0130910F01061724
:1002700017072807390770F7189AD9CF18161906E3
:100280001A061B0644F410920C0110920D011092F4
:100290000E0110920F01222311F02898DBCF289A2B
:1002A000D9CF181619061A061B066CF3F6CF2B9831
:1002B000239A1AB88FE387B918B825982D982498EF
:1002C0002C98289A209A2198299A22982A9A90E084
:1002D00080E00E942B038B3098F480931C01809166
:1002E0001C0160E090E00E94BC0023982B9864EF12
:1002F00071E080E090E00E94AA028DE00C9465001D
:1003000010921C01ECCF0F931F9380911101882351
:10031000D1F180911501882399F089B180931A0158
:100320001092150190911B0120910001921320C0A1
:100330009FEF980F9A30C8F461E090E00E94BC00F3
:1003400083B190E033E0959587953A95E1F7982F42
:1003500091709093130180FD59C080911C0160E061
:1003600090E01F910F910C94BC0010921B01E8CFFC
:10037000E92FF0E0EF5FFE4F20818213F6CF9F5F01
:1003800090931B01DDCF83B190E024E09595879594
:100390002A95E1F7982F9170909314019091120192
:1003A00080FD2FC091110DC081E0809312010E9449
:1003B0004B0260931601709317018093180190937C
:1003C00019010E944B020091160110911701209112
:1003D000180130911901601B710B820B930B613D69
:1003E00077408105910548F010921201109210019A
:1003F00061E090E080E00E94BC001F910F910C949E
:1004000000019923D1F310921201F7CF1F910F91A0
:1004100008951F920F920FB60F9211244F935F937E
:100420006F937F938F939F9340911F015091200171
:10043000609121017091220180911E0190911D0116
:10044000943019F510921D0190911D0190FD21C06D
:100450008A598D3728F08D574F5F5F4F6F4F7F4F11
:1004600080931E0140931F0150932001609321014E
:10047000709322019F918F917F916F915F914F9126
:100480000F900FBE0F901F9018959F5F90931D01C6
:10049000DBCF8959DECF2FB7F89460911F0170919F
:1004A000200180912101909122012FBF0895CF92C8
:1004B000DF92EF92FF926FB7F89480911F019091B5
:1004C0002001A0912101B091220150911E0126B579
:1004D00035B3432F417030FF04C041E02F3F09F492
:1004E00040E06FBF6C017D0137E0CC0CDD1CEE1CE1
:1004F000FF1C3A95D1F7C50ED11CE11CF11CC81A9E
:10050000D90AEA0AFB0A880F991FAA1FBB1FC81A3B
:10051000D90AEA0AFB0A63E0CC0CDD1CEE1CFF1CC6
:100520006A95D1F730E0A3E3B3E00E941C03672F84
:10053000782F892F99276C0D7D1D8E1D9F1D4423BB
:1005400021F06D5C7C4F8F4F9F4FFF90EF90DF90BD
:10055000CF9008958F929F92AF92BF92CF92DF92E9
:10056000EF92FF926B017C010E9457024B015C01EC
:10057000C114D104E104F104E9F00E941B030E94BC
:100580005702681979098A099B09683E73408105F9
:10059000910570F321E0C21AD108E108F10888EE54
:1005A000880E83E0981EA11CB11CC114D104E10483
:1005B000F10429F7FF90EF90DF90CF90BF90AF90BC
:1005C0009F908F900895789484B5836084BD85B59D
:1005D000836085BDEEE6F0E0808181608083E1E8A4
:1005E000F0E082E08083808181608083E0E8F0E059
:1005F000808181608083E1EBF0E080818460808392
:10060000E0EBF0E080818160808387E880937A006E
:100610001092C100089508950E94E3020E940B0306
:100620000E945701C0E0D0E00E9483012097E1F3CF
:100630000E940000F9CF0895A29FB001B39FC001AE
:10064000A39F700D811D1124911DB29F700D811DFE
:100650001124911D0895F999FECF92BD81BDF89A9C
:10066000992780B50895262FF999FECF1FBA92BD1C
:1006700081BD20BD0FB6F894FA9AF99A0FBE019683
:060680000895F894FFCF7D
:0C0686000A43424D524F4D3132382300E0
:00000001FF
