:100000000C9434000C9451000C9451000C94530047
:100010000C9451000C9451000C9451000C9451001C
:100020000C9451000C9451000C9451000C9451000C
:100030000C9451000C9451000C9451000C945100FC
:100040000C9408020C9451000C9451000C94510033
:100050000C9451000C9451000C9451000C945100DC
:100060000C9451000C94510011241FBECFEFD8E026
:10007000DEBFCDBF11E0A0E0B1E0E4E8F6E002C0F1
:1000800005900D92AE30B107D9F721E0AEE0B1E0B6
:1000900001C01D92A532B207E1F70E940B030C9438
:1000A00040030C9400001F920F920FB60F92112480
:1000B0008F9383B185FB882780F9809317018F91F7
:1000C0000F900FBE0F901F901895EDE6F0E088306E
:1000D00060F08E3090F1843130F0863170F1F0E0D4
:1000E000E0E0863111F4ECE6F0E09081883040F5F4
:1000F00041E050E060E070E0082E04C0440F551F5E
:10010000661F771F0A94D2F7492B40832BB394E0E4
:10011000883050F091E08E3038F092E0843120F059
:1001200091E0863108F090E0822F892B8BBB809183
:100130006800982B909368000895EBE6F0E0D5CF27
:10014000482F4850550B8E3028F0863180F4482FC8
:100150004E50550B9A0141E050E060E070E004C061
:10016000440F551F661F771F2A95D2F7CDCF40E465
:10017000863151F240E0C8CF1F93CF93DF93EC015B
:10018000162F662341F02B98239A64E670E080E0F6
:1001900090E00E94A9028C2F880F880F88B9809167
:1001A0001E018C171D0679F0209779F06C2F90E0D6
:1001B00080E00E943203C0931E0110921301CC0F05
:1001C000C093120105C02097C1F781E0809313010D
:1001D000112389F068EC70E080E090E00E94A902B1
:1001E00023982B9864EF71E080E090E0DF91CF914D
:1001F0001F910C94A902DF91CF911F9108950F9345
:100200001F932091140180910E0190910F01A091F4
:100210001001B091110130911201332371F12111BC
:100220003FC0892B8A2B8B2BB9F428980E944A0255
:1002300066507F4F8F4F9F4F60930E0170930F0159
:10024000809310019093110180911201815080934D
:1002500012011F910F9108950E944A0200910E0110
:1002600010910F012091100130911101061717070D
:100270002807390770F7189AD9CF181619061A06E1
:100280001B0644F410920E0110920F0110921001FF
:1002900010921101222311F02898DBCF289AD9CF90
:1002A000181619061A061B066CF3F6CF2B98239A1C
:1002B0001AB88FE387B918B825982D9824982C98E8
:1002C000289A209A2198299A22982A9A90E080E0E8
:1002D0000E942A038B3098F480931E0180911E01A6
:1002E00060E090E00E94BC0023982B9864EF71E0DE
:1002F00080E090E00E94A9028DE00C9465001092CD
:100300001E01ECCF0F931F93809113018823D1F12D
:1003100080911701882399F089B180931C01109274
:10032000170190911D0120910001921320C09FEFB1
:10033000980F9A30C8F461E090E00E94BC0083B14D
:1003400090E033E0959587953A95E1F7982F917075
:100350009093150180FD59C080911E0160E090E0EE
:100360001F910F910C94BC0010921D01E8CFE92F52
:10037000F0E0EF5FFE4F20818213F6CF9F5F9093F6
:100380001D01DDCF83B190E024E0959587952A95F6
:10039000E1F7982F9170909316019091140180FDD0
:1003A0002FC091110DC081E0809314010E944A0278
:1003B000609318017093190180931A0190931B01A7
:1003C0000E944A02009118011091190120911A010E
:1003D00030911B01601B710B820B930B613D7740C9
:1003E0008105910548F0109214011092120161E00C
:1003F00090E080E00E94BC001F910F910C94FF00E0
:100400009923D1F310921401F7CF1F910F91089502
:100410001F920F920FB60F9211244F935F936F9319
:100420007F938F939F93409121015091220160917E
:100430002301709124018091200190911F0194303B
:1004400019F510921F0190911F0190FD21C08A594A
:100450008D3728F08D574F5F5F4F6F4F7F4F8093E1
:100460002001409321015093220160932301709356
:1004700024019F918F917F916F915F914F910F9088
:100480000FBE0F901F9018959F5F90931F01DBCFB9
:100490008959DECF2FB7F894609121017091220124
:1004A00080912301909124012FBF0895CF92DF9274
:1004B000EF92FF926FB7F894809121019091220101
:1004C000A0912301B09124015091200126B535B3AC
:1004D000432F417030FF04C041E02F3F09F440E05A
:1004E0006FBF6C017D0137E0CC0CDD1CEE1CFF1CE6
:1004F0003A95D1F7C50ED11CE11CF11CC81AD90AD6
:10050000EA0AFB0A880F991FAA1FBB1FC81AD90A3B
:10051000EA0AFB0A63E0CC0CDD1CEE1CFF1C6A95AA
:10052000D1F730E0A3E3B3E00E941B03672F782FDD
:10053000892F99276C0D7D1D8E1D9F1D442321F051
:100540006D5C7C4F8F4F9F4FFF90EF90DF90CF906F
:1005500008958F929F92AF92BF92CF92DF92EF92C7
:10056000FF926B017C010E9456024B015C01C11499
:10057000D104E104F104E9F00E941A030E9456023A
:10058000681979098A099B09683E734081059105BC
:1005900070F321E0C21AD108E108F10888EE880E54
:1005A00083E0981EA11CB11CC114D104E104F10424
:1005B00029F7FF90EF90DF90CF90BF90AF909F9082
:1005C0008F900895789484B5836084BD85B58360E9
:1005D00085BDEEE6F0E0808181608083E1E8F0E0B7
:1005E00082E08083808181608083E0E8F0E0808128
:1005F00081608083E1EBF0E0808184608083E0EBC8
:10060000F0E080818160808387E880937A00109297
:10061000C100089508950E94E2020E940A030E9408
:100620005601C0E0D0E00E9482012097E1F30E94D1
:100630000000F9CF0895A29FB001B39FC001A39F0E
:10064000700D811D1124911DB29F700D811D11240B
:10065000911D0895F999FECF92BD81BDF89A992711
:1006600080B50895262FF999FECF1FBA92BD81BD9E
:1006700020BD0FB6F894FA9AF99A0FBE0196089524
:04068000F894FFCF1C
:0E0684000D43424D524F4D3132384443522304
:00000001FF
