:100000000C9434000C9451000C9451000C94530047
:100010000C9451000C9451000C9451000C9451001C
:100020000C9451000C9451000C9451000C9451000C
:100030000C9451000C9451000C9451000C945100FC
:100040000C9405020C9451000C9451000C94510036
:100050000C9451000C9451000C9451000C945100DC
:100060000C9451000C94510011241FBECFEFD8E026
:10007000DEBFCDBF11E0A0E0B1E0EEE7F6E002C0E8
:1000800005900D92AA30B107D9F721E0AAE0B1E0BE
:1000900001C01D92A132B207E1F70E9408030C943F
:1000A0003D030C9400001F920F920FB60F92112483
:1000B0008F9383B185FB882780F9809313018F91FB
:1000C0000F900FBE0F901F901895EDE6F0E088306E
:1000D00060F08E3090F1843130F0863170F1F0E0D4
:1000E000E0E0863111F4ECE6F0E09081883040F5F4
:1000F00041E050E060E070E0082E04C0440F551F5E
:10010000661F771F0A94D2F7492B40832BB394E0E4
:10011000883050F091E08E3038F092E0843120F059
:1001200091E0863108F090E0822F892B8BBB809183
:100130006800982B909368000895EBE6F0E0D5CF27
:10014000482F4850550B8E3028F0863180F4482FC8
:100150004E50550B9A0141E050E060E070E004C061
:10016000440F551F661F771F2A95D2F7CDCF40E465
:10017000863151F240E0C8CF1F93CF93DF93EC015B
:10018000162F662341F02B98239A64E670E080E0F6
:1001900090E00E94A602C8B980911A018C171D0632
:1001A00079F0209779F06C2F90E080E00E942F0387
:1001B000C0931A0110920F01CC0FC0930E0105C01D
:1001C0002097C1F781E080930F01112389F068EC3B
:1001D00070E080E090E00E94A60223982B9864EFE4
:1001E00071E080E090E0DF91CF911F910C94A60226
:1001F000DF91CF911F9108950F931F9320911001CC
:1002000080910A0190910B01A0910C01B0910D0118
:1002100030910E01332371F121113FC0892B8A2BBC
:100220008B2BB9F428980E94470266507F4F8F4F5E
:100230009F4F60930A0170930B0180930C01909380
:100240000D0180910E01815080930E011F910F913D
:1002500008950E94470200910A0110910B0120911C
:100260000C0130910D01061717072807390770F7A1
:10027000189AD9CF181619061A061B0644F41092BC
:100280000A0110920B0110920C0110920D01222311
:1002900011F02898DBCF289AD9CF181619061A061C
:1002A0001B066CF3F6CF2B98239A1AB88FE387B905
:1002B00018B825982D9824982C98289A209A219837
:1002C000299A22982A9A90E080E00E9427038B3096
:1002D00098F480931A0180911A0160E090E00E94E6
:1002E000BC0023982B9864EF71E080E090E00E94BE
:1002F000A6028DE00C94650010921A01ECCF0F93CA
:100300001F9380910F018823D1F1809113018823DD
:1003100099F089B1809318011092130190911901FD
:1003200020910001921320C09FEF980F9A30C8F4DB
:1003300061E090E00E94BC0083B190E033E09595CD
:1003400087953A95E1F7982F91709093110180FD70
:1003500059C080911A0160E090E01F910F910C94B8
:10036000BC0010921901E8CFE92FF0E0EF5FFE4FDB
:1003700020818213F6CF9F5F90931901DDCF83B167
:1003800090E024E0959587952A95E1F7982F917054
:10039000909312019091100180FD2FC091110DC01A
:1003A00081E0809310010E944702609314017093D2
:1003B000150180931601909317010E944702009146
:1003C0001401109115012091160130911701601B45
:1003D000710B820B930B613D77408105910548F0CD
:1003E0001092100110920E0161E090E080E00E94F6
:1003F000BC001F910F910C94FC009923D1F3109233
:100400001001F7CF1F910F9108951F920F920FB611
:100410000F9211244F935F936F937F938F939F93CA
:1004200040911D0150911E0160911F0170912001AA
:1004300080911C0190911B01943019F510921B01C1
:1004400090911B0190FD21C08A598D3728F08D575E
:100450004F5F5F4F6F4F7F4F80931C0140931D0193
:1004600050931E0160931F01709320019F918F9103
:100470007F916F915F914F910F900FBE0F901F90E2
:1004800018959F5F90931B01DBCF8959DECF2FB763
:10049000F89460911D0170911E0180911F0190914F
:1004A00020012FBF0895CF92DF92EF92FF926FB796
:1004B000F89480911D0190911E01A0911F01B091AF
:1004C000200150911C0126B535B3432F417030FFF8
:1004D00004C041E02F3F09F440E06FBF6C017D0193
:1004E00037E0CC0CDD1CEE1CFF1C3A95D1F7C50E95
:1004F000D11CE11CF11CC81AD90AEA0AFB0A880FB0
:10050000991FAA1FBB1FC81AD90AEA0AFB0A63E08F
:10051000CC0CDD1CEE1CFF1C6A95D1F730E0A3E388
:10052000B3E00E941803672F782F892F99276C0D4D
:100530007D1D8E1D9F1D442321F06D5C7C4F8F4FD0
:100540009F4FFF90EF90DF90CF9008958F929F92F2
:10055000AF92BF92CF92DF92EF92FF926B017C013C
:100560000E9453024B015C01C114D104E104F10467
:10057000E9F00E9417030E945302681979098A0959
:100580009B09683E73408105910570F321E0C21A12
:10059000D108E108F10888EE880E83E0981EA11CBE
:1005A000B11CC114D104E104F10429F7FF90EF90CC
:1005B000DF90CF90BF90AF909F908F9008957894E8
:1005C00084B5836084BD85B5836085BDEEE6F0E0CB
:1005D000808181608083E1E8F0E082E08083808137
:1005E00081608083E0E8F0E0808181608083E1EBDE
:1005F000F0E0808184608083E0EBF0E080818160C6
:10060000808387E880937A001092C100089508954E
:100610000E94DF020E9407030E945301C0E0D0E065
:100620000E947F012097E1F30E940000F9CF089516
:10063000A29FB001B39FC001A39F700D811D112423
:10064000911DB29F700D811D1124911D0895F9997E
:10065000FECF92BD81BDF89A992780B50895262FC7
:10066000F999FECF1FBA92BD81BD20BD0FB6F89497
:0E067000FA9AF99A0FBE01960895F894FFCFFA
:0A067E000943424D524F4D32302324
:00000001FF
